{
  "contractName": "Calculator",
  "abi": [
    {
      "inputs": [
        {
          "internalType": "uint256",
          "name": "num",
          "type": "uint256"
        }
      ],
      "payable": false,
      "stateMutability": "nonpayable",
      "type": "constructor"
    },
    {
      "anonymous": false,
      "inputs": [
        {
          "indexed": false,
          "internalType": "uint256",
          "name": "n",
          "type": "uint256"
        }
      ],
      "name": "NumberAdded",
      "type": "event"
    },
    {
      "anonymous": false,
      "inputs": [
        {
          "indexed": false,
          "internalType": "uint256",
          "name": "n",
          "type": "uint256"
        }
      ],
      "name": "NumberDivided",
      "type": "event"
    },
    {
      "anonymous": false,
      "inputs": [
        {
          "indexed": false,
          "internalType": "uint256",
          "name": "n",
          "type": "uint256"
        }
      ],
      "name": "NumberMultiplied",
      "type": "event"
    },
    {
      "anonymous": false,
      "inputs": [
        {
          "indexed": false,
          "internalType": "uint256",
          "name": "n",
          "type": "uint256"
        }
      ],
      "name": "NumberSubstracted",
      "type": "event"
    },
    {
      "constant": true,
      "inputs": [],
      "name": "getResult",
      "outputs": [
        {
          "internalType": "uint256",
          "name": "",
          "type": "uint256"
        }
      ],
      "payable": false,
      "stateMutability": "view",
      "type": "function"
    },
    {
      "constant": false,
      "inputs": [
        {
          "internalType": "uint256",
          "name": "num",
          "type": "uint256"
        }
      ],
      "name": "addToNumber",
      "outputs": [
        {
          "internalType": "uint256",
          "name": "",
          "type": "uint256"
        }
      ],
      "payable": false,
      "stateMutability": "nonpayable",
      "type": "function"
    },
    {
      "constant": false,
      "inputs": [
        {
          "internalType": "uint256",
          "name": "num",
          "type": "uint256"
        }
      ],
      "name": "substractFromNumber",
      "outputs": [
        {
          "internalType": "uint256",
          "name": "",
          "type": "uint256"
        }
      ],
      "payable": false,
      "stateMutability": "nonpayable",
      "type": "function"
    },
    {
      "constant": false,
      "inputs": [
        {
          "internalType": "uint256",
          "name": "num",
          "type": "uint256"
        }
      ],
      "name": "multiplyWithNumber",
      "outputs": [
        {
          "internalType": "uint256",
          "name": "",
          "type": "uint256"
        }
      ],
      "payable": false,
      "stateMutability": "nonpayable",
      "type": "function"
    },
    {
      "constant": false,
      "inputs": [
        {
          "internalType": "uint256",
          "name": "num",
          "type": "uint256"
        }
      ],
      "name": "divideNumberBy",
      "outputs": [
        {
          "internalType": "uint256",
          "name": "",
          "type": "uint256"
        }
      ],
      "payable": false,
      "stateMutability": "nonpayable",
      "type": "function"
    }
  ],
  "bytecode": "0x608060405234801561001057600080fd5b5060405161036a38038061036a8339818101604052602081101561003357600080fd5b8101908080519060200190929190505050806000819055505061030f8061005b6000396000f3fe608060405234801561001057600080fd5b50600436106100575760003560e01c806306ccd2301461005c578063235778a21461009e578063b4679b06146100e0578063de29278914610122578063ef455b3c14610140575b600080fd5b6100886004803603602081101561007257600080fd5b8101908080359060200190929190505050610182565b6040518082815260200191505060405180910390f35b6100ca600480360360208110156100b457600080fd5b81019080803590602001909291905050506101d4565b6040518082815260200191505060405180910390f35b61010c600480360360208110156100f657600080fd5b810190808035906020019092919050505061022d565b6040518082815260200191505060405180910390f35b61012a61027f565b6040518082815260200191505060405180910390f35b61016c6004803603602081101561015657600080fd5b8101908080359060200190929190505050610288565b6040518082815260200191505060405180910390f35b60008160008082825401925050819055507fae3addfccd9152bd45552621c986157cf223c02d568e9c2c678baa8dbf81a233826040518082815260200191505060405180910390a16000549050919050565b600081600080828254816101e457fe5b04925050819055507fed0bc23928add0162a999d4ea2049c291319a7a8963d7e72136b37c73ee4f991826040518082815260200191505060405180910390a16000549050919050565b60008160008082825402925050819055507fa895b6fc5616dc5f28ac38cbba65bf73cc432c1d07abc566c2ee5a77d7e14b75826040518082815260200191505060405180910390a16000549050919050565b60008054905090565b60008160008082825403925050819055507fafff65abcc5aa616c9aeb2aeb0df6ed28bd36c614137dcc72c808f5426b99b8c826040518082815260200191505060405180910390a1600054905091905056fea265627a7a7231582031fc25e0377022467888451b5d2253c049ff6e195a89217d72e4fc306fe475f764736f6c63430005100032",
  "source": "pragma solidity >=0.5.0;\n\ncontract Calculator {\n    uint256 result;\n\n    event NumberAdded(uint256 n);\n    event NumberSubstracted(uint256 n);\n    event NumberMultiplied(uint256 n);\n    event NumberDivided(uint256 n);\n\n    constructor(uint256 num) public {\n        result = num;\n    }\n\n    function getResult() public view returns (uint256) {\n        return result;\n    }\n\n    function addToNumber(uint256 num) public returns (uint256) {\n        result += num;\n        emit NumberAdded(num);\n        return result;\n    }\n\n    function substractFromNumber(uint256 num) public returns (uint256) {\n        result -= num;\n        emit NumberSubstracted(num);\n        return result;\n    }\n\n    function multiplyWithNumber(uint256 num) public returns (uint256) {\n        result *= num;\n        emit NumberMultiplied(num);\n        return result;\n    }\n\n    function divideNumberBy(uint256 num) public returns (uint256) {\n        result /= num;\n        emit NumberDivided(num);\n        return result;\n    }\n}\n",
  "sourcePath": "/home/abdou/Documents/Blockchain/Ethereum Decentralized Application Design & Development/practice/Calculator/contracts/Calculator.sol",
  "compiler": {
    "name": "solc",
    "version": "0.5.16+commit.9c3226ce.Emscripten.clang"
  },
  "schemaVersion": "3.4.3",
  "updatedAt": "2021-09-10T20:01:37.705Z",
  "networkType": "ethereum",
  "devdoc": {
    "methods": {}
  },
  "userdoc": {
    "methods": {}
  }
}